{
  "address": "0x0165878A594ca255338adfa4d48449f69242Eb8F",
  "abi": [
    {
      "inputs": [
        {
          "internalType": "address",
          "name": "priceFeedAddress",
          "type": "address"
        }
      ],
      "stateMutability": "nonpayable",
      "type": "constructor"
    },
    {
      "inputs": [],
      "name": "NotOwner",
      "type": "error"
    },
    {
      "stateMutability": "payable",
      "type": "fallback"
    },
    {
      "inputs": [],
      "name": "MINIMUM_USD",
      "outputs": [
        {
          "internalType": "uint256",
          "name": "",
          "type": "uint256"
        }
      ],
      "stateMutability": "view",
      "type": "function"
    },
    {
      "inputs": [],
      "name": "fund",
      "outputs": [],
      "stateMutability": "payable",
      "type": "function"
    },
    {
      "inputs": [
        {
          "internalType": "address",
          "name": "funder",
          "type": "address"
        }
      ],
      "name": "getAddressToAmountFunded",
      "outputs": [
        {
          "internalType": "uint256",
          "name": "",
          "type": "uint256"
        }
      ],
      "stateMutability": "view",
      "type": "function"
    },
    {
      "inputs": [
        {
          "internalType": "uint256",
          "name": "index",
          "type": "uint256"
        }
      ],
      "name": "getFunder",
      "outputs": [
        {
          "internalType": "address",
          "name": "",
          "type": "address"
        }
      ],
      "stateMutability": "view",
      "type": "function"
    },
    {
      "inputs": [],
      "name": "getOwner",
      "outputs": [
        {
          "internalType": "address",
          "name": "",
          "type": "address"
        }
      ],
      "stateMutability": "view",
      "type": "function"
    },
    {
      "inputs": [],
      "name": "getVersion",
      "outputs": [
        {
          "internalType": "uint256",
          "name": "",
          "type": "uint256"
        }
      ],
      "stateMutability": "view",
      "type": "function"
    },
    {
      "inputs": [],
      "name": "s_priceFeed",
      "outputs": [
        {
          "internalType": "contract AggregatorV3Interface",
          "name": "",
          "type": "address"
        }
      ],
      "stateMutability": "view",
      "type": "function"
    },
    {
      "inputs": [],
      "name": "withdraw",
      "outputs": [],
      "stateMutability": "nonpayable",
      "type": "function"
    },
    {
      "stateMutability": "payable",
      "type": "receive"
    }
  ],
  "transactionHash": "0x5c65edaa055c90663da22f88ff0d6395958a42e1c21162c880ae81ca0fb3edec",
  "args": [
    "0x694AA1769357215DE4FAC081bf1f309aDC325306"
  ],
  "numDeployments": 2,
  "solcInputHash": "658c60ee8b443b76907868f17b7d253d",
  "bytecode": "0x608060405234801561001057600080fd5b506040516200102e3803806200102e8339818101604052810190610034919061011f565b33600260006101000a81548173ffffffffffffffffffffffffffffffffffffffff021916908373ffffffffffffffffffffffffffffffffffffffff16021790555080600360006101000a81548173ffffffffffffffffffffffffffffffffffffffff021916908373ffffffffffffffffffffffffffffffffffffffff1602179055505061014c565b600080fd5b600073ffffffffffffffffffffffffffffffffffffffff82169050919050565b60006100ec826100c1565b9050919050565b6100fc816100e1565b811461010757600080fd5b50565b600081519050610119816100f3565b92915050565b600060208284031215610135576101346100bc565b5b60006101438482850161010a565b91505092915050565b610ed2806200015c6000396000f3fe60806040526004361061007f5760003560e01c80636b69a5921161004e5780636b69a59214610142578063893d20e81461016d578063b60d428814610198578063d7b4750c146101a25761008e565b80630343fb25146100985780630d8e6e2c146100d55780630ec3b027146101005780633ccfd60b1461012b5761008e565b3661008e5761008c6101df565b005b6100966101df565b005b3480156100a457600080fd5b506100bf60048036038101906100ba91906108b7565b610319565b6040516100cc91906108fd565b60405180910390f35b3480156100e157600080fd5b506100ea610361565b6040516100f791906108fd565b60405180910390f35b34801561010c57600080fd5b506101156103f9565b6040516101229190610977565b60405180910390f35b34801561013757600080fd5b5061014061041f565b005b34801561014e57600080fd5b50610157610661565b60405161016491906108fd565b60405180910390f35b34801561017957600080fd5b5061018261066e565b60405161018f91906109a1565b60405180910390f35b6101a06101df565b005b3480156101ae57600080fd5b506101c960048036038101906101c491906109e8565b610698565b6040516101d691906109a1565b60405180910390f35b6802b5e3af16b188000061021e600360009054906101000a900473ffffffffffffffffffffffffffffffffffffffff16346106e090919063ffffffff16565b101561025f576040517f08c379a000000000000000000000000000000000000000000000000000000000815260040161025690610a72565b60405180910390fd5b346000803373ffffffffffffffffffffffffffffffffffffffff1673ffffffffffffffffffffffffffffffffffffffff16815260200190815260200160002060008282546102ad9190610ac1565b925050819055506001339080600181540180825580915050600190039060005260206000200160009091909190916101000a81548173ffffffffffffffffffffffffffffffffffffffff021916908373ffffffffffffffffffffffffffffffffffffffff160217905550565b60008060008373ffffffffffffffffffffffffffffffffffffffff1673ffffffffffffffffffffffffffffffffffffffff168152602001908152602001600020549050919050565b6000600360009054906101000a900473ffffffffffffffffffffffffffffffffffffffff1673ffffffffffffffffffffffffffffffffffffffff166354fd4d506040518163ffffffff1660e01b8152600401602060405180830381865afa1580156103d0573d6000803e3d6000fd5b505050506040513d601f19601f820116820180604052508101906103f49190610b0a565b905090565b600360009054906101000a900473ffffffffffffffffffffffffffffffffffffffff1681565b600260009054906101000a900473ffffffffffffffffffffffffffffffffffffffff1673ffffffffffffffffffffffffffffffffffffffff163373ffffffffffffffffffffffffffffffffffffffff16146104a6576040517f30cd747100000000000000000000000000000000000000000000000000000000815260040160405180910390fd5b60005b600180549050811015610551576000600182815481106104cc576104cb610b37565b5b9060005260206000200160009054906101000a900473ffffffffffffffffffffffffffffffffffffffff16905060008060008373ffffffffffffffffffffffffffffffffffffffff1673ffffffffffffffffffffffffffffffffffffffff1681526020019081526020016000208190555050808061054990610b66565b9150506104a9565b50600067ffffffffffffffff81111561056d5761056c610bae565b5b60405190808252806020026020018201604052801561059b5781602001602082028036833780820191505090505b50600190805190602001906105b19291906107ad565b5060003373ffffffffffffffffffffffffffffffffffffffff16476040516105d890610c0e565b60006040518083038185875af1925050503d8060008114610615576040519150601f19603f3d011682016040523d82523d6000602084013e61061a565b606091505b505090508061065e576040517f08c379a000000000000000000000000000000000000000000000000000000000815260040161065590610c6f565b60405180910390fd5b50565b6802b5e3af16b188000081565b6000600260009054906101000a900473ffffffffffffffffffffffffffffffffffffffff16905090565b6000600182815481106106ae576106ad610b37565b5b9060005260206000200160009054906101000a900473ffffffffffffffffffffffffffffffffffffffff169050919050565b6000806106ec8361071c565b90506000670de0b6b3a764000085836107059190610c8f565b61070f9190610d00565b9050809250505092915050565b6000808273ffffffffffffffffffffffffffffffffffffffff1663feaf968c6040518163ffffffff1660e01b815260040160a060405180830381865afa15801561076a573d6000803e3d6000fd5b505050506040513d601f19601f8201168201806040525081019061078e9190610da9565b5050509150506402540be400816107a59190610e24565b915050919050565b828054828255906000526020600020908101928215610826579160200282015b828111156108255782518260006101000a81548173ffffffffffffffffffffffffffffffffffffffff021916908373ffffffffffffffffffffffffffffffffffffffff160217905550916020019190600101906107cd565b5b5090506108339190610837565b5090565b5b80821115610850576000816000905550600101610838565b5090565b600080fd5b600073ffffffffffffffffffffffffffffffffffffffff82169050919050565b600061088482610859565b9050919050565b61089481610879565b811461089f57600080fd5b50565b6000813590506108b18161088b565b92915050565b6000602082840312156108cd576108cc610854565b5b60006108db848285016108a2565b91505092915050565b6000819050919050565b6108f7816108e4565b82525050565b600060208201905061091260008301846108ee565b92915050565b6000819050919050565b600061093d61093861093384610859565b610918565b610859565b9050919050565b600061094f82610922565b9050919050565b600061096182610944565b9050919050565b61097181610956565b82525050565b600060208201905061098c6000830184610968565b92915050565b61099b81610879565b82525050565b60006020820190506109b66000830184610992565b92915050565b6109c5816108e4565b81146109d057600080fd5b50565b6000813590506109e2816109bc565b92915050565b6000602082840312156109fe576109fd610854565b5b6000610a0c848285016109d3565b91505092915050565b600082825260208201905092915050565b7f596f75206e65656420746f207370656e64206d6f726520455448210000000000600082015250565b6000610a5c601b83610a15565b9150610a6782610a26565b602082019050919050565b60006020820190508181036000830152610a8b81610a4f565b9050919050565b7f4e487b7100000000000000000000000000000000000000000000000000000000600052601160045260246000fd5b6000610acc826108e4565b9150610ad7836108e4565b9250828201905080821115610aef57610aee610a92565b5b92915050565b600081519050610b04816109bc565b92915050565b600060208284031215610b2057610b1f610854565b5b6000610b2e84828501610af5565b91505092915050565b7f4e487b7100000000000000000000000000000000000000000000000000000000600052603260045260246000fd5b6000610b71826108e4565b91507fffffffffffffffffffffffffffffffffffffffffffffffffffffffffffffffff8203610ba357610ba2610a92565b5b600182019050919050565b7f4e487b7100000000000000000000000000000000000000000000000000000000600052604160045260246000fd5b600081905092915050565b50565b6000610bf8600083610bdd565b9150610c0382610be8565b600082019050919050565b6000610c1982610beb565b9150819050919050565b7f4661696c656420746f2077697468647261772100000000000000000000000000600082015250565b6000610c59601383610a15565b9150610c6482610c23565b602082019050919050565b60006020820190508181036000830152610c8881610c4c565b9050919050565b6000610c9a826108e4565b9150610ca5836108e4565b9250828202610cb3816108e4565b91508282048414831517610cca57610cc9610a92565b5b5092915050565b7f4e487b7100000000000000000000000000000000000000000000000000000000600052601260045260246000fd5b6000610d0b826108e4565b9150610d16836108e4565b925082610d2657610d25610cd1565b5b828204905092915050565b600069ffffffffffffffffffff82169050919050565b610d5081610d31565b8114610d5b57600080fd5b50565b600081519050610d6d81610d47565b92915050565b6000819050919050565b610d8681610d73565b8114610d9157600080fd5b50565b600081519050610da381610d7d565b92915050565b600080600080600060a08688031215610dc557610dc4610854565b5b6000610dd388828901610d5e565b9550506020610de488828901610d94565b9450506040610df588828901610af5565b9350506060610e0688828901610af5565b9250506080610e1788828901610d5e565b9150509295509295909350565b6000610e2f82610d73565b9150610e3a83610d73565b9250828202610e4881610d73565b91507f80000000000000000000000000000000000000000000000000000000000000008414600084121615610e8057610e7f610a92565b5b8282058414831517610e9557610e94610a92565b5b509291505056fea26469706673582212201e06aa5073a9dee7fabd78a8b3f9ee6f527a0772f6766a313a4b17d6edd4b18664736f6c63430008130033",
  "devdoc": {
    "kind": "dev",
    "methods": {},
    "version": 1
  },
  "userdoc": {
    "kind": "user",
    "methods": {},
    "version": 1
  },
  "storageLayout": {
    "storage": [
      {
        "astId": 59,
        "contract": "contracts/FundMe.sol:FundMe",
        "label": "s_addressToAmountFunded",
        "offset": 0,
        "slot": "0",
        "type": "t_mapping(t_address,t_uint256)"
      },
      {
        "astId": 62,
        "contract": "contracts/FundMe.sol:FundMe",
        "label": "s_funders",
        "offset": 0,
        "slot": "1",
        "type": "t_array(t_address)dyn_storage"
      },
      {
        "astId": 64,
        "contract": "contracts/FundMe.sol:FundMe",
        "label": "i_owner",
        "offset": 0,
        "slot": "2",
        "type": "t_address"
      },
      {
        "astId": 67,
        "contract": "contracts/FundMe.sol:FundMe",
        "label": "s_priceFeed",
        "offset": 0,
        "slot": "3",
        "type": "t_contract(AggregatorV3Interface)45"
      }
    ],
    "types": {
      "t_address": {
        "encoding": "inplace",
        "label": "address",
        "numberOfBytes": "20"
      },
      "t_array(t_address)dyn_storage": {
        "base": "t_address",
        "encoding": "dynamic_array",
        "label": "address[]",
        "numberOfBytes": "32"
      },
      "t_contract(AggregatorV3Interface)45": {
        "encoding": "inplace",
        "label": "contract AggregatorV3Interface",
        "numberOfBytes": "20"
      },
      "t_mapping(t_address,t_uint256)": {
        "encoding": "mapping",
        "key": "t_address",
        "label": "mapping(address => uint256)",
        "numberOfBytes": "32",
        "value": "t_uint256"
      },
      "t_uint256": {
        "encoding": "inplace",
        "label": "uint256",
        "numberOfBytes": "32"
      }
    }
  }
}