{
  "address": "0x5FbDB2315678afecb367f032d93F642f64180aa3",
  "abi": [
    {
      "inputs": [
        {
          "internalType": "uint8",
          "name": "_decimals",
          "type": "uint8"
        },
        {
          "internalType": "int256",
          "name": "_initialAnswer",
          "type": "int256"
        }
      ],
      "stateMutability": "nonpayable",
      "type": "constructor"
    },
    {
      "inputs": [],
      "name": "decimals",
      "outputs": [
        {
          "internalType": "uint8",
          "name": "",
          "type": "uint8"
        }
      ],
      "stateMutability": "view",
      "type": "function"
    },
    {
      "inputs": [],
      "name": "description",
      "outputs": [
        {
          "internalType": "string",
          "name": "",
          "type": "string"
        }
      ],
      "stateMutability": "pure",
      "type": "function"
    },
    {
      "inputs": [
        {
          "internalType": "uint80",
          "name": "",
          "type": "uint80"
        }
      ],
      "name": "getRoundData",
      "outputs": [
        {
          "internalType": "uint80",
          "name": "roundId",
          "type": "uint80"
        },
        {
          "internalType": "int256",
          "name": "answer",
          "type": "int256"
        },
        {
          "internalType": "uint256",
          "name": "startedAt",
          "type": "uint256"
        },
        {
          "internalType": "uint256",
          "name": "updatedAt",
          "type": "uint256"
        },
        {
          "internalType": "uint80",
          "name": "answeredInRound",
          "type": "uint80"
        }
      ],
      "stateMutability": "view",
      "type": "function"
    },
    {
      "inputs": [],
      "name": "latestRoundData",
      "outputs": [
        {
          "internalType": "uint80",
          "name": "roundId",
          "type": "uint80"
        },
        {
          "internalType": "int256",
          "name": "answer",
          "type": "int256"
        },
        {
          "internalType": "uint256",
          "name": "startedAt",
          "type": "uint256"
        },
        {
          "internalType": "uint256",
          "name": "updatedAt",
          "type": "uint256"
        },
        {
          "internalType": "uint80",
          "name": "answeredInRound",
          "type": "uint80"
        }
      ],
      "stateMutability": "view",
      "type": "function"
    },
    {
      "inputs": [
        {
          "internalType": "int256",
          "name": "newAnswer",
          "type": "int256"
        }
      ],
      "name": "updateAnswer",
      "outputs": [],
      "stateMutability": "nonpayable",
      "type": "function"
    },
    {
      "inputs": [],
      "name": "version",
      "outputs": [
        {
          "internalType": "uint256",
          "name": "",
          "type": "uint256"
        }
      ],
      "stateMutability": "view",
      "type": "function"
    }
  ],
  "transactionHash": "0x4d3cc0134aaf8f76f1f599a7c751297fcbca418142622a57fbd6023a83127e69",
  "args": [
    "8",
    "200000000000"
  ],
  "numDeployments": 1,
  "solcInputHash": "aeb33af2760dc8064e83c352f754158d",
  "bytecode": "0x60a0604052600460015534801561001557600080fd5b506040516105a93803806105a9833981810160405281019061003791906100c7565b8160ff1660808160ff1681525050806000819055505050610107565b600080fd5b600060ff82169050919050565b61006e81610058565b811461007957600080fd5b50565b60008151905061008b81610065565b92915050565b6000819050919050565b6100a481610091565b81146100af57600080fd5b50565b6000815190506100c18161009b565b92915050565b600080604083850312156100de576100dd610053565b5b60006100ec8582860161007c565b92505060206100fd858286016100b2565b9150509250929050565b608051610487610122600039600061013501526104876000f3fe608060405234801561001057600080fd5b50600436106100625760003560e01c8063313ce5671461006757806354fd4d50146100855780637284e416146100a35780639a6fc8f5146100c1578063a87a20ce146100f5578063feaf968c14610111575b600080fd5b61006f610133565b60405161007c9190610208565b60405180910390f35b61008d610157565b60405161009a919061023c565b60405180910390f35b6100ab610161565b6040516100b891906102e7565b60405180910390f35b6100db60048036038101906100d69190610350565b61019e565b6040516100ec9594939291906103a5565b60405180910390f35b61010f600480360381019061010a9190610424565b6101c1565b005b6101196101cb565b60405161012a9594939291906103a5565b60405180910390f35b7f000000000000000000000000000000000000000000000000000000000000000081565b6000600154905090565b60606040518060400160405280601281526020017f4d6f636b2056332041676772656761746f720000000000000000000000000000815250905090565b600080600080600080600054424260009450945094509450945091939590929450565b8060008190555050565b60008060008060008060005442426000945094509450945094509091929394565b600060ff82169050919050565b610202816101ec565b82525050565b600060208201905061021d60008301846101f9565b92915050565b6000819050919050565b61023681610223565b82525050565b6000602082019050610251600083018461022d565b92915050565b600081519050919050565b600082825260208201905092915050565b60005b83811015610291578082015181840152602081019050610276565b60008484015250505050565b6000601f19601f8301169050919050565b60006102b982610257565b6102c38185610262565b93506102d3818560208601610273565b6102dc8161029d565b840191505092915050565b6000602082019050818103600083015261030181846102ae565b905092915050565b600080fd5b600069ffffffffffffffffffff82169050919050565b61032d8161030e565b811461033857600080fd5b50565b60008135905061034a81610324565b92915050565b60006020828403121561036657610365610309565b5b60006103748482850161033b565b91505092915050565b6103868161030e565b82525050565b6000819050919050565b61039f8161038c565b82525050565b600060a0820190506103ba600083018861037d565b6103c76020830187610396565b6103d4604083018661022d565b6103e1606083018561022d565b6103ee608083018461037d565b9695505050505050565b6104018161038c565b811461040c57600080fd5b50565b60008135905061041e816103f8565b92915050565b60006020828403121561043a57610439610309565b5b60006104488482850161040f565b9150509291505056fea2646970667358221220655933ec0ae516485f744a0b16562467cf0601cb407b24d3a49f33b56f82ddb164736f6c63430008130033",
  "devdoc": {
    "kind": "dev",
    "methods": {},
    "version": 1
  },
  "userdoc": {
    "kind": "user",
    "methods": {},
    "version": 1
  },
  "storageLayout": {
    "storage": [
      {
        "astId": 396,
        "contract": "contracts/test/MockV3Aggregator.sol:MockV3Aggregator",
        "label": "s_answer",
        "offset": 0,
        "slot": "0",
        "type": "t_int256"
      },
      {
        "astId": 399,
        "contract": "contracts/test/MockV3Aggregator.sol:MockV3Aggregator",
        "label": "s_version",
        "offset": 0,
        "slot": "1",
        "type": "t_uint256"
      }
    ],
    "types": {
      "t_int256": {
        "encoding": "inplace",
        "label": "int256",
        "numberOfBytes": "32"
      },
      "t_uint256": {
        "encoding": "inplace",
        "label": "uint256",
        "numberOfBytes": "32"
      }
    }
  }
}